{
    "_format": "hh-sol-artifact-1",
    "contractName": "GigMarketplace",
    "sourceName": "contracts/GigMarketplace.sol",
    "abi": [
        {
            "inputs": [],
            "stateMutability": "nonpayable",
            "type": "constructor"
        },
        {
            "inputs": [
                {
                    "internalType": "address",
                    "name": "owner",
                    "type": "address"
                }
            ],
            "name": "OwnableInvalidOwner",
            "type": "error"
        },
        {
            "inputs": [
                {
                    "internalType": "address",
                    "name": "account",
                    "type": "address"
                }
            ],
            "name": "OwnableUnauthorizedAccount",
            "type": "error"
        },
        {
            "anonymous": false,
            "inputs": [
                {
                    "indexed": false,
                    "internalType": "uint256",
                    "name": "id",
                    "type": "uint256"
                },
                {
                    "indexed": false,
                    "internalType": "address",
                    "name": "freelancer",
                    "type": "address"
                }
            ],
            "name": "JobAccepted",
            "type": "event"
        },
        {
            "anonymous": false,
            "inputs": [
                {
                    "indexed": false,
                    "internalType": "uint256",
                    "name": "id",
                    "type": "uint256"
                },
                {
                    "indexed": false,
                    "internalType": "address",
                    "name": "freelancer",
                    "type": "address"
                },
                {
                    "indexed": false,
                    "internalType": "uint256",
                    "name": "payment",
                    "type": "uint256"
                }
            ],
            "name": "JobCompleted",
            "type": "event"
        },
        {
            "anonymous": false,
            "inputs": [
                {
                    "indexed": false,
                    "internalType": "uint256",
                    "name": "id",
                    "type": "uint256"
                },
                {
                    "indexed": false,
                    "internalType": "address",
                    "name": "client",
                    "type": "address"
                },
                {
                    "indexed": false,
                    "internalType": "uint256",
                    "name": "payment",
                    "type": "uint256"
                }
            ],
            "name": "JobPosted",
            "type": "event"
        },
        {
            "anonymous": false,
            "inputs": [
                {
                    "indexed": true,
                    "internalType": "address",
                    "name": "previousOwner",
                    "type": "address"
                },
                {
                    "indexed": true,
                    "internalType": "address",
                    "name": "newOwner",
                    "type": "address"
                }
            ],
            "name": "OwnershipTransferred",
            "type": "event"
        },
        {
            "inputs": [
                {
                    "internalType": "uint256",
                    "name": "_jobId",
                    "type": "uint256"
                }
            ],
            "name": "acceptJob",
            "outputs": [],
            "stateMutability": "nonpayable",
            "type": "function"
        },
        {
            "inputs": [
                {
                    "internalType": "uint256",
                    "name": "_jobId",
                    "type": "uint256"
                }
            ],
            "name": "completeJob",
            "outputs": [],
            "stateMutability": "nonpayable",
            "type": "function"
        },
        {
            "inputs": [
                {
                    "internalType": "uint256",
                    "name": "_jobId",
                    "type": "uint256"
                }
            ],
            "name": "getApprovalHash",
            "outputs": [
                {
                    "internalType": "bytes32",
                    "name": "",
                    "type": "bytes32"
                }
            ],
            "stateMutability": "view",
            "type": "function"
        },
        {
            "inputs": [
                {
                    "internalType": "uint256",
                    "name": "",
                    "type": "uint256"
                }
            ],
            "name": "jobs",
            "outputs": [
                {
                    "internalType": "uint256",
                    "name": "id",
                    "type": "uint256"
                },
                {
                    "internalType": "address",
                    "name": "client",
                    "type": "address"
                },
                {
                    "internalType": "address payable",
                    "name": "freelancer",
                    "type": "address"
                },
                {
                    "internalType": "string",
                    "name": "description",
                    "type": "string"
                },
                {
                    "internalType": "uint256",
                    "name": "payment",
                    "type": "uint256"
                },
                {
                    "internalType": "enum GigMarketplace.JobStatus",
                    "name": "status",
                    "type": "uint8"
                }
            ],
            "stateMutability": "view",
            "type": "function"
        },
        {
            "inputs": [],
            "name": "nextJobId",
            "outputs": [
                {
                    "internalType": "uint256",
                    "name": "",
                    "type": "uint256"
                }
            ],
            "stateMutability": "view",
            "type": "function"
        },
        {
            "inputs": [],
            "name": "owner",
            "outputs": [
                {
                    "internalType": "address",
                    "name": "",
                    "type": "address"
                }
            ],
            "stateMutability": "view",
            "type": "function"
        },
        {
            "inputs": [],
            "name": "platformFeePercent",
            "outputs": [
                {
                    "internalType": "uint256",
                    "name": "",
                    "type": "uint256"
                }
            ],
            "stateMutability": "view",
            "type": "function"
        },
        {
            "inputs": [
                {
                    "internalType": "string",
                    "name": "_description",
                    "type": "string"
                }
            ],
            "name": "postJob",
            "outputs": [],
            "stateMutability": "payable",
            "type": "function"
        },
        {
            "inputs": [],
            "name": "renounceOwnership",
            "outputs": [],
            "stateMutability": "nonpayable",
            "type": "function"
        },
        {
            "inputs": [
                {
                    "internalType": "address",
                    "name": "newOwner",
                    "type": "address"
                }
            ],
            "name": "transferOwnership",
            "outputs": [],
            "stateMutability": "nonpayable",
            "type": "function"
        },
        {
            "inputs": [],
            "name": "withdrawFees",
            "outputs": [],
            "stateMutability": "nonpayable",
            "type": "function"
        }
    ],
    "bytecode": "0x60806040526002600155600160025534801561001a57600080fd5b5033600073ffffffffffffffffffffffffffffffffffffffff168173ffffffffffffffffffffffffffffffffffffffff160361008e5760006040517f1e4fbdf700000000000000000000000000000000000000000000000000000000815260040161008591906101a8565b60405180910390fd5b61009d816100a360201b60201c565b506101c3565b60008060009054906101000a900473ffffffffffffffffffffffffffffffffffffffff169050816000806101000a81548173ffffffffffffffffffffffffffffffffffffffff021916908373ffffffffffffffffffffffffffffffffffffffff1602179055508173ffffffffffffffffffffffffffffffffffffffff168173ffffffffffffffffffffffffffffffffffffffff167f8be0079c531659141344cd1fd0a4f28419497f9722a3daafe3b4186f6b6457e060405160405180910390a35050565b600073ffffffffffffffffffffffffffffffffffffffff82169050919050565b600061019282610167565b9050919050565b6101a281610187565b82525050565b60006020820190506101bd6000830184610199565b92915050565b61194a806101d26000396000f3fe60806040526004361061009c5760003560e01c80638c639a85116100645780638c639a85146101565780638da5cb5b14610181578063a1c0d32f146101ac578063b0c2aa5e146101d5578063c3c4fe9f14610200578063f2fde38b1461023d5761009c565b8063180aedf3146100a157806327a6d1d7146100e3578063476343ee146100ff57806363b2f3c914610116578063715018a61461013f575b600080fd5b3480156100ad57600080fd5b506100c860048036038101906100c39190610c50565b610266565b6040516100da96959493929190610df5565b60405180910390f35b6100fd60048036038101906100f89190610f92565b610377565b005b34801561010b57600080fd5b50610114610581565b005b34801561012257600080fd5b5061013d60048036038101906101389190610c50565b610622565b005b34801561014b57600080fd5b5061015461075e565b005b34801561016257600080fd5b5061016b610772565b6040516101789190610fdb565b60405180910390f35b34801561018d57600080fd5b50610196610778565b6040516101a39190610ff6565b60405180910390f35b3480156101b857600080fd5b506101d360048036038101906101ce9190610c50565b6107a1565b005b3480156101e157600080fd5b506101ea6109f5565b6040516101f79190610fdb565b60405180910390f35b34801561020c57600080fd5b5061022760048036038101906102229190610c50565b6109fb565b604051610234919061102a565b60405180910390f35b34801561024957600080fd5b50610264600480360381019061025f9190611071565b610a2d565b005b60036020528060005260406000206000915090508060000154908060010160009054906101000a900473ffffffffffffffffffffffffffffffffffffffff16908060020160009054906101000a900473ffffffffffffffffffffffffffffffffffffffff16908060030180546102db906110cd565b80601f0160208091040260200160405190810160405280929190818152602001828054610307906110cd565b80156103545780601f1061032957610100808354040283529160200191610354565b820191906000526020600020905b81548152906001019060200180831161033757829003601f168201915b5050505050908060040154908060050160009054906101000a900460ff16905086565b600034116103ba576040517f08c379a00000000000000000000000000000000000000000000000000000000081526004016103b190611170565b60405180910390fd5b6040518060c0016040528060025481526020013373ffffffffffffffffffffffffffffffffffffffff168152602001600073ffffffffffffffffffffffffffffffffffffffff1681526020018281526020013481526020016000600381111561042657610425610d7e565b5b8152506003600060025481526020019081526020016000206000820151816000015560208201518160010160006101000a81548173ffffffffffffffffffffffffffffffffffffffff021916908373ffffffffffffffffffffffffffffffffffffffff16021790555060408201518160020160006101000a81548173ffffffffffffffffffffffffffffffffffffffff021916908373ffffffffffffffffffffffffffffffffffffffff16021790555060608201518160030190816104eb919061133c565b506080820151816004015560a08201518160050160006101000a81548160ff0219169083600381111561052157610520610d7e565b5b02179055509050507fe6f2f347838fc981db964da8bbb1855db0ed5008037096e90da474c23b0f432b600254333460405161055e9392919061140e565b60405180910390a16002600081548092919061057990611474565b919050555050565b610589610ab3565b6000479050600081116105d1576040517f08c379a00000000000000000000000000000000000000000000000000000000081526004016105c890611508565b60405180910390fd5b6105d9610778565b73ffffffffffffffffffffffffffffffffffffffff166108fc829081150290604051600060405180830381858888f1935050505015801561061e573d6000803e3d6000fd5b5050565b60006003600083815260200190815260200160002090506000600381111561064d5761064c610d7e565b5b8160050160009054906101000a900460ff16600381111561067157610670610d7e565b5b146106b1576040517f08c379a00000000000000000000000000000000000000000000000000000000081526004016106a890611574565b60405180910390fd5b338160020160006101000a81548173ffffffffffffffffffffffffffffffffffffffff021916908373ffffffffffffffffffffffffffffffffffffffff16021790555060018160050160006101000a81548160ff0219169083600381111561071c5761071b610d7e565b5b02179055507f4426e4a90a9570c8f678a263b11785eaaade8b79d76d18c43d4d8e00062e4f838233604051610752929190611594565b60405180910390a15050565b610766610ab3565b6107706000610b3a565b565b60015481565b60008060009054906101000a900473ffffffffffffffffffffffffffffffffffffffff16905090565b60006003600083815260200190815260200160002090508060010160009054906101000a900473ffffffffffffffffffffffffffffffffffffffff1673ffffffffffffffffffffffffffffffffffffffff163373ffffffffffffffffffffffffffffffffffffffff161461084a576040517f08c379a00000000000000000000000000000000000000000000000000000000081526004016108419061162f565b60405180910390fd5b6001600381111561085e5761085d610d7e565b5b8160050160009054906101000a900460ff16600381111561088257610881610d7e565b5b146108c2576040517f08c379a00000000000000000000000000000000000000000000000000000000081526004016108b99061169b565b60405180910390fd5b6000606460015483600401546108d891906116bb565b6108e2919061172c565b905060008183600401546108f6919061175d565b90508260020160009054906101000a900473ffffffffffffffffffffffffffffffffffffffff1673ffffffffffffffffffffffffffffffffffffffff166108fc829081150290604051600060405180830381858888f19350505050158015610962573d6000803e3d6000fd5b5060028360050160006101000a81548160ff0219169083600381111561098b5761098a610d7e565b5b02179055507f4dbba472101e9f148a3a5ecbe793f0ee16a7efe4bf3f8cbfab5330e1642ef955848460020160009054906101000a900473ffffffffffffffffffffffffffffffffffffffff16836040516109e7939291906117e6565b60405180910390a150505050565b60025481565b60008130604051602001610a109291906118dd565b604051602081830303815290604052805190602001209050919050565b610a35610ab3565b600073ffffffffffffffffffffffffffffffffffffffff168173ffffffffffffffffffffffffffffffffffffffff1603610aa75760006040517f1e4fbdf7000000000000000000000000000000000000000000000000000000008152600401610a9e9190610ff6565b60405180910390fd5b610ab081610b3a565b50565b610abb610bfe565b73ffffffffffffffffffffffffffffffffffffffff16610ad9610778565b73ffffffffffffffffffffffffffffffffffffffff1614610b3857610afc610bfe565b6040517f118cdaa7000000000000000000000000000000000000000000000000000000008152600401610b2f9190610ff6565b60405180910390fd5b565b60008060009054906101000a900473ffffffffffffffffffffffffffffffffffffffff169050816000806101000a81548173ffffffffffffffffffffffffffffffffffffffff021916908373ffffffffffffffffffffffffffffffffffffffff1602179055508173ffffffffffffffffffffffffffffffffffffffff168173ffffffffffffffffffffffffffffffffffffffff167f8be0079c531659141344cd1fd0a4f28419497f9722a3daafe3b4186f6b6457e060405160405180910390a35050565b600033905090565b6000604051905090565b600080fd5b600080fd5b6000819050919050565b610c2d81610c1a565b8114610c3857600080fd5b50565b600081359050610c4a81610c24565b92915050565b600060208284031215610c6657610c65610c10565b5b6000610c7484828501610c3b565b91505092915050565b610c8681610c1a565b82525050565b600073ffffffffffffffffffffffffffffffffffffffff82169050919050565b6000610cb782610c8c565b9050919050565b610cc781610cac565b82525050565b6000610cd882610c8c565b9050919050565b610ce881610ccd565b82525050565b600081519050919050565b600082825260208201905092915050565b60005b83811015610d28578082015181840152602081019050610d0d565b60008484015250505050565b6000601f19601f8301169050919050565b6000610d5082610cee565b610d5a8185610cf9565b9350610d6a818560208601610d0a565b610d7381610d34565b840191505092915050565b7f4e487b7100000000000000000000000000000000000000000000000000000000600052602160045260246000fd5b60048110610dbe57610dbd610d7e565b5b50565b6000819050610dcf82610dad565b919050565b6000610ddf82610dc1565b9050919050565b610def81610dd4565b82525050565b600060c082019050610e0a6000830189610c7d565b610e176020830188610cbe565b610e246040830187610cdf565b8181036060830152610e368186610d45565b9050610e456080830185610c7d565b610e5260a0830184610de6565b979650505050505050565b600080fd5b600080fd5b7f4e487b7100000000000000000000000000000000000000000000000000000000600052604160045260246000fd5b610e9f82610d34565b810181811067ffffffffffffffff82111715610ebe57610ebd610e67565b5b80604052505050565b6000610ed1610c06565b9050610edd8282610e96565b919050565b600067ffffffffffffffff821115610efd57610efc610e67565b5b610f0682610d34565b9050602081019050919050565b82818337600083830152505050565b6000610f35610f3084610ee2565b610ec7565b905082815260208101848484011115610f5157610f50610e62565b5b610f5c848285610f13565b509392505050565b600082601f830112610f7957610f78610e5d565b5b8135610f89848260208601610f22565b91505092915050565b600060208284031215610fa857610fa7610c10565b5b600082013567ffffffffffffffff811115610fc657610fc5610c15565b5b610fd284828501610f64565b91505092915050565b6000602082019050610ff06000830184610c7d565b92915050565b600060208201905061100b6000830184610cbe565b92915050565b6000819050919050565b61102481611011565b82525050565b600060208201905061103f600083018461101b565b92915050565b61104e81610cac565b811461105957600080fd5b50565b60008135905061106b81611045565b92915050565b60006020828403121561108757611086610c10565b5b60006110958482850161105c565b91505092915050565b7f4e487b7100000000000000000000000000000000000000000000000000000000600052602260045260246000fd5b600060028204905060018216806110e557607f821691505b6020821081036110f8576110f761109e565b5b50919050565b7f5061796d656e74206d7573742062652067726561746572207468616e207a657260008201527f6f00000000000000000000000000000000000000000000000000000000000000602082015250565b600061115a602183610cf9565b9150611165826110fe565b604082019050919050565b600060208201905081810360008301526111898161114d565b9050919050565b60008190508160005260206000209050919050565b60006020601f8301049050919050565b600082821b905092915050565b6000600883026111f27fffffffffffffffffffffffffffffffffffffffffffffffffffffffffffffffff826111b5565b6111fc86836111b5565b95508019841693508086168417925050509392505050565b6000819050919050565b600061123961123461122f84610c1a565b611214565b610c1a565b9050919050565b6000819050919050565b6112538361121e565b61126761125f82611240565b8484546111c2565b825550505050565b600090565b61127c61126f565b61128781848461124a565b505050565b5b818110156112ab576112a0600082611274565b60018101905061128d565b5050565b601f8211156112f0576112c181611190565b6112ca846111a5565b810160208510156112d9578190505b6112ed6112e5856111a5565b83018261128c565b50505b505050565b600082821c905092915050565b6000611313600019846008026112f5565b1980831691505092915050565b600061132c8383611302565b9150826002028217905092915050565b61134582610cee565b67ffffffffffffffff81111561135e5761135d610e67565b5b61136882546110cd565b6113738282856112af565b600060209050601f8311600181146113a65760008415611394578287015190505b61139e8582611320565b865550611406565b601f1984166113b486611190565b60005b828110156113dc578489015182556001820191506020850194506020810190506113b7565b868310156113f957848901516113f5601f891682611302565b8355505b6001600288020188555050505b505050505050565b60006060820190506114236000830186610c7d565b6114306020830185610cbe565b61143d6040830184610c7d565b949350505050565b7f4e487b7100000000000000000000000000000000000000000000000000000000600052601160045260246000fd5b600061147f82610c1a565b91507fffffffffffffffffffffffffffffffffffffffffffffffffffffffffffffffff82036114b1576114b0611445565b5b600182019050919050565b7f4e6f206665657320746f20776974686472617700000000000000000000000000600082015250565b60006114f2601383610cf9565b91506114fd826114bc565b602082019050919050565b60006020820190508181036000830152611521816114e5565b9050919050565b7f4a6f62206973206e6f74206f70656e0000000000000000000000000000000000600082015250565b600061155e600f83610cf9565b915061156982611528565b602082019050919050565b6000602082019050818103600083015261158d81611551565b9050919050565b60006040820190506115a96000830185610c7d565b6115b66020830184610cbe565b9392505050565b7f4f6e6c792074686520636c69656e742063616e20636f6d706c6574652074686560008201527f206a6f6200000000000000000000000000000000000000000000000000000000602082015250565b6000611619602483610cf9565b9150611624826115bd565b604082019050919050565b600060208201905081810360008301526116488161160c565b9050919050565b7f4a6f62206973206e6f7420696e2070726f677265737300000000000000000000600082015250565b6000611685601683610cf9565b91506116908261164f565b602082019050919050565b600060208201905081810360008301526116b481611678565b9050919050565b60006116c682610c1a565b91506116d183610c1a565b92508282026116df81610c1a565b915082820484148315176116f6576116f5611445565b5b5092915050565b7f4e487b7100000000000000000000000000000000000000000000000000000000600052601260045260246000fd5b600061173782610c1a565b915061174283610c1a565b925082611752576117516116fd565b5b828204905092915050565b600061176882610c1a565b915061177383610c1a565b925082820390508181111561178b5761178a611445565b5b92915050565b60006117ac6117a76117a284610c8c565b611214565b610c8c565b9050919050565b60006117be82611791565b9050919050565b60006117d0826117b3565b9050919050565b6117e0816117c5565b82525050565b60006060820190506117fb6000830186610c7d565b61180860208301856117d7565b6118156040830184610c7d565b949350505050565b600081905092915050565b7f415050524f56455f4a4f42000000000000000000000000000000000000000000600082015250565b600061185e600b8361181d565b915061186982611828565b600b82019050919050565b6000819050919050565b61188f61188a82610c1a565b611874565b82525050565b60008160601b9050919050565b60006118ad82611895565b9050919050565b60006118bf826118a2565b9050919050565b6118d76118d282610cac565b6118b4565b82525050565b60006118e882611851565b91506118f4828561187e565b60208201915061190482846118c6565b601482019150819050939250505056fea2646970667358221220b540a57d8500703d64dc1cb0a6699b4463169f9bfe46fc6ace26b1dd224d5d9164736f6c634300081c0033",
    "linkReferences": {},
    "deployedLinkReferences": {}
}